{
  "contractName": "MultiLevelDistribution_AirDrop",
  "abi": [
    {
      "constant": false,
      "inputs": [],
      "name": "_Ownable",
      "outputs": [],
      "payable": false,
      "stateMutability": "nonpayable",
      "type": "function"
    },
    {
      "constant": true,
      "inputs": [],
      "name": "owner",
      "outputs": [
        {
          "internalType": "address",
          "name": "",
          "type": "address"
        }
      ],
      "payable": false,
      "stateMutability": "view",
      "type": "function"
    },
    {
      "constant": false,
      "inputs": [
        {
          "internalType": "address",
          "name": "newOwner",
          "type": "address"
        }
      ],
      "name": "transferOwnership",
      "outputs": [],
      "payable": false,
      "stateMutability": "nonpayable",
      "type": "function"
    },
    {
      "constant": false,
      "inputs": [
        {
          "internalType": "address",
          "name": "_tokenAddr",
          "type": "address"
        },
        {
          "internalType": "address[]",
          "name": "dests",
          "type": "address[]"
        },
        {
          "internalType": "uint256[]",
          "name": "values",
          "type": "uint256[]"
        }
      ],
      "name": "MultiLevelDistribution",
      "outputs": [
        {
          "internalType": "uint256",
          "name": "",
          "type": "uint256"
        }
      ],
      "payable": false,
      "stateMutability": "nonpayable",
      "type": "function"
    },
    {
      "constant": false,
      "inputs": [
        {
          "internalType": "address",
          "name": "receiver",
          "type": "address"
        },
        {
          "internalType": "uint256",
          "name": "value",
          "type": "uint256"
        }
      ],
      "name": "AirDrop",
      "outputs": [],
      "payable": false,
      "stateMutability": "nonpayable",
      "type": "function"
    }
  ],
  "bytecode": "0x608060405234801561001057600080fd5b50610679806100206000396000f3fe608060405234801561001057600080fd5b50600436106100575760003560e01c80632a2f3a6f1461005c5780638da5cb5b146100aa578063a78d85ae146100f4578063dc1f2157146100fe578063f2fde38b1461027e575b600080fd5b6100a86004803603604081101561007257600080fd5b81019080803573ffffffffffffffffffffffffffffffffffffffff169060200190929190803590602001909291905050506102c2565b005b6100b26103a3565b604051808273ffffffffffffffffffffffffffffffffffffffff1673ffffffffffffffffffffffffffffffffffffffff16815260200191505060405180910390f35b6100fc6103c8565b005b6102686004803603606081101561011457600080fd5b81019080803573ffffffffffffffffffffffffffffffffffffffff1690602001909291908035906020019064010000000081111561015157600080fd5b82018360208201111561016357600080fd5b8035906020019184602083028401116401000000008311171561018557600080fd5b919080806020026020016040519081016040528093929190818152602001838360200280828437600081840152601f19601f820116905080830192505050505050509192919290803590602001906401000000008111156101e557600080fd5b8201836020820111156101f757600080fd5b8035906020019184602083028401116401000000008311171561021957600080fd5b919080806020026020016040519081016040528093929190818152602001838360200280828437600081840152601f19601f82011690508083019250505050505050919291929050505061040a565b6040518082815260200191505060405180910390f35b6102c06004803603602081101561029457600080fd5b81019080803573ffffffffffffffffffffffffffffffffffffffff169060200190929190505050610573565b005b60007303c6207a31fc4cd219f82f30decc19b427aa16b790508073ffffffffffffffffffffffffffffffffffffffff1663a9059cbb84846040518363ffffffff1660e01b8152600401808373ffffffffffffffffffffffffffffffffffffffff1673ffffffffffffffffffffffffffffffffffffffff16815260200182815260200192505050602060405180830381600087803b15801561036257600080fd5b505af1158015610376573d6000803e3d6000fd5b505050506040513d602081101561038c57600080fd5b810190808051906020019092919050505050505050565b6000809054906101000a900473ffffffffffffffffffffffffffffffffffffffff1681565b336000806101000a81548173ffffffffffffffffffffffffffffffffffffffff021916908373ffffffffffffffffffffffffffffffffffffffff160217905550565b60008060009054906101000a900473ffffffffffffffffffffffffffffffffffffffff1673ffffffffffffffffffffffffffffffffffffffff163373ffffffffffffffffffffffffffffffffffffffff161461046557600080fd5b60008090505b8351811015610568578473ffffffffffffffffffffffffffffffffffffffff1663a9059cbb85838151811061049c57fe5b60200260200101518584815181106104b057fe5b60200260200101516040518363ffffffff1660e01b8152600401808373ffffffffffffffffffffffffffffffffffffffff1673ffffffffffffffffffffffffffffffffffffffff16815260200182815260200192505050602060405180830381600087803b15801561052157600080fd5b505af1158015610535573d6000803e3d6000fd5b505050506040513d602081101561054b57600080fd5b81019080805190602001909291905050505060018101905061046b565b809150509392505050565b6000809054906101000a900473ffffffffffffffffffffffffffffffffffffffff1673ffffffffffffffffffffffffffffffffffffffff163373ffffffffffffffffffffffffffffffffffffffff16146105cc57600080fd5b600073ffffffffffffffffffffffffffffffffffffffff168173ffffffffffffffffffffffffffffffffffffffff161461064157806000806101000a81548173ffffffffffffffffffffffffffffffffffffffff021916908373ffffffffffffffffffffffffffffffffffffffff1602179055505b5056fea265627a7a72315820315b6eccb5ee8dd2434467ca1221b8c253603305198465ac0b4be7d6ae1e07be64736f6c634300050c0032",
  "source": "pragma solidity ^0.5.0;\r\n\r\nimport \"./IERC20.sol\";\r\n\r\ncontract Ownable {\r\n  address public owner;\r\n\r\n  function _Ownable() public {\r\n    owner = msg.sender;\r\n  }\r\n\r\n  modifier onlyOwner() {\r\n    if (msg.sender != owner) {\r\n      revert();\r\n    }\r\n    _;\r\n  }\r\n\r\n  function transferOwnership(address newOwner) public onlyOwner {\r\n    if (newOwner != address(0)) {\r\n      owner = newOwner;\r\n    }\r\n  }\r\n}\r\n\r\ncontract MultiLevelDistribution_AirDrop is Ownable {\r\n\r\n    function MultiLevelDistribution(address _tokenAddr, address[] memory dests, uint256[] memory values)public onlyOwner returns (uint256) {\r\n       \t\t\t\t uint256 i = 0;\r\n        while (i < dests.length) {\r\n           IERC20(_tokenAddr).transfer(dests[i], values[i]);\r\n           i += 1;\r\n        }\r\n        return(i);\r\n    }\r\n\r\n    function AirDrop ( address receiver, uint256 value) public {\r\n      address _tokenAddr = 0x03C6207A31fC4cD219f82f30dEcC19b427aa16B7; //address of my token\r\n      IERC20(_tokenAddr).transfer(receiver, value);\r\n  }\r\n\r\n}\r\n",
  "sourcePath": "/home/clement/myproject/contracts/MultiLevelDistribution_AirDrop.sol",
  "compiler": {
    "name": "solc",
    "version": "0.5.12+commit.7709ece9.Emscripten.clang"
  },
  "schemaVersion": "3.0.19",
  "updatedAt": "2019-11-22T17:24:42.917Z",
  "devdoc": {
    "methods": {}
  },
  "userdoc": {
    "methods": {}
  }
}